{
  "_format": "hh-sol-artifact-1",
  "contractName": "BaseFlashLoanArbitrage",
  "sourceName": "contracts/BaseFlashLoanArbitrage.sol",
  "abi": [
    {
      "inputs": [
        {
          "internalType": "address",
          "name": "_addressProvider",
          "type": "address"
        }
      ],
      "stateMutability": "nonpayable",
      "type": "constructor"
    },
    {
      "anonymous": false,
      "inputs": [
        {
          "indexed": true,
          "internalType": "address",
          "name": "asset",
          "type": "address"
        },
        {
          "indexed": false,
          "internalType": "uint256",
          "name": "borrowAmount",
          "type": "uint256"
        },
        {
          "indexed": false,
          "internalType": "uint256",
          "name": "profit",
          "type": "uint256"
        },
        {
          "indexed": false,
          "internalType": "uint256",
          "name": "gasUsed",
          "type": "uint256"
        }
      ],
      "name": "ArbitrageExecuted",
      "type": "event"
    },
    {
      "anonymous": false,
      "inputs": [
        {
          "indexed": true,
          "internalType": "address",
          "name": "previousOwner",
          "type": "address"
        },
        {
          "indexed": true,
          "internalType": "address",
          "name": "newOwner",
          "type": "address"
        }
      ],
      "name": "OwnershipTransferred",
      "type": "event"
    },
    {
      "anonymous": false,
      "inputs": [
        {
          "indexed": true,
          "internalType": "address",
          "name": "token",
          "type": "address"
        },
        {
          "indexed": false,
          "internalType": "uint256",
          "name": "amount",
          "type": "uint256"
        }
      ],
      "name": "ProfitWithdrawn",
      "type": "event"
    },
    {
      "inputs": [],
      "name": "ADDRESSES_PROVIDER",
      "outputs": [
        {
          "internalType": "contract IPoolAddressesProvider",
          "name": "",
          "type": "address"
        }
      ],
      "stateMutability": "view",
      "type": "function"
    },
    {
      "inputs": [],
      "name": "POOL",
      "outputs": [
        {
          "internalType": "contract IPool",
          "name": "",
          "type": "address"
        }
      ],
      "stateMutability": "view",
      "type": "function"
    },
    {
      "inputs": [],
      "name": "POOL_FEE_HIGH",
      "outputs": [
        {
          "internalType": "uint24",
          "name": "",
          "type": "uint24"
        }
      ],
      "stateMutability": "view",
      "type": "function"
    },
    {
      "inputs": [],
      "name": "POOL_FEE_LOW",
      "outputs": [
        {
          "internalType": "uint24",
          "name": "",
          "type": "uint24"
        }
      ],
      "stateMutability": "view",
      "type": "function"
    },
    {
      "inputs": [],
      "name": "POOL_FEE_MEDIUM",
      "outputs": [
        {
          "internalType": "uint24",
          "name": "",
          "type": "uint24"
        }
      ],
      "stateMutability": "view",
      "type": "function"
    },
    {
      "inputs": [],
      "name": "QUOTER",
      "outputs": [
        {
          "internalType": "contract IQuoterV2",
          "name": "",
          "type": "address"
        }
      ],
      "stateMutability": "view",
      "type": "function"
    },
    {
      "inputs": [],
      "name": "UNISWAP_ROUTER",
      "outputs": [
        {
          "internalType": "contract IUniswapV3SwapRouter",
          "name": "",
          "type": "address"
        }
      ],
      "stateMutability": "view",
      "type": "function"
    },
    {
      "inputs": [],
      "name": "USDC",
      "outputs": [
        {
          "internalType": "address",
          "name": "",
          "type": "address"
        }
      ],
      "stateMutability": "view",
      "type": "function"
    },
    {
      "inputs": [],
      "name": "USDbC",
      "outputs": [
        {
          "internalType": "address",
          "name": "",
          "type": "address"
        }
      ],
      "stateMutability": "view",
      "type": "function"
    },
    {
      "inputs": [],
      "name": "WETH",
      "outputs": [
        {
          "internalType": "address",
          "name": "",
          "type": "address"
        }
      ],
      "stateMutability": "view",
      "type": "function"
    },
    {
      "inputs": [
        {
          "internalType": "address",
          "name": "tokenA",
          "type": "address"
        },
        {
          "internalType": "address",
          "name": "tokenB",
          "type": "address"
        },
        {
          "internalType": "uint24",
          "name": "fee1",
          "type": "uint24"
        },
        {
          "internalType": "uint24",
          "name": "fee2",
          "type": "uint24"
        },
        {
          "internalType": "uint256",
          "name": "testAmount",
          "type": "uint256"
        }
      ],
      "name": "calculateArbitrageOpportunity",
      "outputs": [
        {
          "internalType": "bool",
          "name": "profitable",
          "type": "bool"
        },
        {
          "internalType": "uint256",
          "name": "expectedProfit",
          "type": "uint256"
        },
        {
          "internalType": "uint256",
          "name": "optimalAmount",
          "type": "uint256"
        }
      ],
      "stateMutability": "nonpayable",
      "type": "function"
    },
    {
      "inputs": [
        {
          "internalType": "address",
          "name": "asset",
          "type": "address"
        },
        {
          "internalType": "uint256",
          "name": "amount",
          "type": "uint256"
        },
        {
          "internalType": "bytes",
          "name": "params",
          "type": "bytes"
        }
      ],
      "name": "executeFlashLoanArbitrage",
      "outputs": [],
      "stateMutability": "nonpayable",
      "type": "function"
    },
    {
      "inputs": [
        {
          "internalType": "address",
          "name": "asset",
          "type": "address"
        },
        {
          "internalType": "uint256",
          "name": "amount",
          "type": "uint256"
        },
        {
          "internalType": "uint256",
          "name": "premium",
          "type": "uint256"
        },
        {
          "internalType": "address",
          "name": "initiator",
          "type": "address"
        },
        {
          "internalType": "bytes",
          "name": "params",
          "type": "bytes"
        }
      ],
      "name": "executeOperation",
      "outputs": [
        {
          "internalType": "bool",
          "name": "",
          "type": "bool"
        }
      ],
      "stateMutability": "nonpayable",
      "type": "function"
    },
    {
      "inputs": [],
      "name": "maxGasPrice",
      "outputs": [
        {
          "internalType": "uint256",
          "name": "",
          "type": "uint256"
        }
      ],
      "stateMutability": "view",
      "type": "function"
    },
    {
      "inputs": [],
      "name": "maxSlippage",
      "outputs": [
        {
          "internalType": "uint256",
          "name": "",
          "type": "uint256"
        }
      ],
      "stateMutability": "view",
      "type": "function"
    },
    {
      "inputs": [],
      "name": "minProfitBasisPoints",
      "outputs": [
        {
          "internalType": "uint256",
          "name": "",
          "type": "uint256"
        }
      ],
      "stateMutability": "view",
      "type": "function"
    },
    {
      "inputs": [],
      "name": "owner",
      "outputs": [
        {
          "internalType": "address",
          "name": "",
          "type": "address"
        }
      ],
      "stateMutability": "view",
      "type": "function"
    },
    {
      "inputs": [],
      "name": "renounceOwnership",
      "outputs": [],
      "stateMutability": "nonpayable",
      "type": "function"
    },
    {
      "inputs": [
        {
          "internalType": "address",
          "name": "newOwner",
          "type": "address"
        }
      ],
      "name": "transferOwnership",
      "outputs": [],
      "stateMutability": "nonpayable",
      "type": "function"
    },
    {
      "inputs": [
        {
          "internalType": "uint256",
          "name": "_minProfitBasisPoints",
          "type": "uint256"
        },
        {
          "internalType": "uint256",
          "name": "_maxGasPrice",
          "type": "uint256"
        },
        {
          "internalType": "uint256",
          "name": "_maxSlippage",
          "type": "uint256"
        }
      ],
      "name": "updateSettings",
      "outputs": [],
      "stateMutability": "nonpayable",
      "type": "function"
    },
    {
      "inputs": [],
      "name": "withdrawETH",
      "outputs": [],
      "stateMutability": "nonpayable",
      "type": "function"
    },
    {
      "inputs": [
        {
          "internalType": "address",
          "name": "token",
          "type": "address"
        }
      ],
      "name": "withdrawProfits",
      "outputs": [],
      "stateMutability": "nonpayable",
      "type": "function"
    },
    {
      "stateMutability": "payable",
      "type": "receive"
    }
  ],
  "bytecode": "0x60c06040526032600255640ba43b740060035561012c60045534801561002457600080fd5b50604051620015db380380620015db83398101604081905261004591610132565b80806001600160a01b03166080816001600160a01b031681525050806001600160a01b031663026b1d5f6040518163ffffffff1660e01b8152600401602060405180830381865afa15801561009e573d6000803e3d6000fd5b505050506040513d601f19601f820116820180604052508101906100c29190610132565b6001600160a01b031660a052506100d8336100e2565b5060018055610162565b600080546001600160a01b038381166001600160a01b0319831681178455604051919092169283917f8be0079c531659141344cd1fd0a4f28419497f9722a3daafe3b4186f6b6457e09190a35050565b60006020828403121561014457600080fd5b81516001600160a01b038116811461015b57600080fd5b9392505050565b60805160a05161143e6200019d6000396000818161027c015281816106210152818161081701526109e101526000610198015261143e6000f3fe6080604052600436106101385760003560e01c80638dae88c2116100ab578063c1386ab91161006f578063c1386ab9146103b8578063d6b735b5146103d8578063d8264920146103ee578063e086e5ec14610416578063eb62c4e31461042b578063f2fde38b1461044157600080fd5b80638dae88c2146102fa578063ad5c464814610322578063b5f78e451461033d578063b982152714610365578063bf50832d146103a257600080fd5b80633de39c11116100fd5780633de39c1114610231578063715018a6146102555780637535d2461461026a57806389a302711461029e5780638c04166f146102c65780638da5cb5b146102dc57600080fd5b8062362a77146101445780630465c563146101665780630542975c14610186578063126865b2146101d75780631b11d0ff1461020157600080fd5b3661013f57005b600080fd5b34801561015057600080fd5b5061016461015f366004611056565b610461565b005b34801561017257600080fd5b50610164610181366004611078565b6105fe565b34801561019257600080fd5b506101ba7f000000000000000000000000000000000000000000000000000000000000000081565b6040516001600160a01b0390911681526020015b60405180910390f35b3480156101e357600080fd5b506101ed610bb881565b60405162ffffff90911681526020016101ce565b34801561020d57600080fd5b5061022161021c3660046110ed565b610614565b60405190151581526020016101ce565b34801561023d57600080fd5b5061024760035481565b6040519081526020016101ce565b34801561026157600080fd5b506101646108f0565b34801561027657600080fd5b506101ba7f000000000000000000000000000000000000000000000000000000000000000081565b3480156102aa57600080fd5b506101ba73833589fcd6edb6e08f4c7c32d4f71b54bda0291381565b3480156102d257600080fd5b5061024760045481565b3480156102e857600080fd5b506000546001600160a01b03166101ba565b34801561030657600080fd5b506101ba733d4e44eb1374240ce5f1b871ab261cd16335b76a81565b34801561032e57600080fd5b506101ba6006602160991b0181565b34801561034957600080fd5b506101ba73d9aaec86b65d86f6a7b5b1b0c42ffa531710b6ca81565b34801561037157600080fd5b50610385610380366004611178565b610904565b6040805193151584526020840192909252908201526060016101ce565b3480156103ae57600080fd5b506101ed6101f481565b3480156103c457600080fd5b506101646103d33660046111d4565b610973565b3480156103e457600080fd5b5061024760025481565b3480156103fa57600080fd5b506101ba732626664c2603336e57b271c5c0b26f421741e48181565b34801561042257600080fd5b50610164610a62565b34801561043757600080fd5b506101ed61271081565b34801561044d57600080fd5b5061016461045c366004611056565b610aea565b610469610b63565b6040516370a0823160e01b81523060048201526000906001600160a01b038316906370a0823190602401602060405180830381865afa1580156104b0573d6000803e3d6000fd5b505050506040513d601f19601f820116820180604052508101906104d4919061122e565b9050600081116105245760405162461bcd60e51b81526020600482015260166024820152754e6f2070726f6669747320746f20776974686472617760501b60448201526064015b60405180910390fd5b816001600160a01b031663a9059cbb6105456000546001600160a01b031690565b6040516001600160e01b031960e084901b1681526001600160a01b039091166004820152602481018490526044016020604051808303816000875af1158015610592573d6000803e3d6000fd5b505050506040513d601f19601f820116820180604052508101906105b69190611255565b50816001600160a01b03167f016e128b6bdadd9e9068abd0b18db2fc8b27ed3dbced50e4aa6cc0a6934251ab826040516105f291815260200190565b60405180910390a25050565b610606610b63565b600292909255600355600455565b6000336001600160a01b037f0000000000000000000000000000000000000000000000000000000000000000161461067f5760405162461bcd60e51b815260206004820152600e60248201526d24b73b30b634b21031b0b63632b960911b604482015260640161051b565b6001600160a01b03841630146106cb5760405162461bcd60e51b815260206004820152601160248201527024b73b30b634b21034b734ba34b0ba37b960791b604482015260640161051b565b60006106d98385018561127d565b905060006106e78289610bbd565b905060006106f5888a611339565b6040516370a0823160e01b815230600482015290915081906001600160a01b038c16906370a0823190602401602060405180830381865afa15801561073e573d6000803e3d6000fd5b505050506040513d601f19601f82011682018060405250810190610762919061122e565b10156107b05760405162461bcd60e51b815260206004820181905260248201527f496e73756666696369656e742066756e647320746f207265706179206c6f616e604482015260640161051b565b600082116108005760405162461bcd60e51b815260206004820152601860248201527f417262697472616765206e6f742070726f66697461626c650000000000000000604482015260640161051b565b60405163095ea7b360e01b81526001600160a01b037f000000000000000000000000000000000000000000000000000000000000000081166004830152602482018390528b169063095ea7b3906044016020604051808303816000875af115801561086f573d6000803e3d6000fd5b505050506040513d601f19601f820116820180604052508101906108939190611255565b50896001600160a01b03167fac5e73d65c7df1a72a57e0d680767c7e764095957ee44ec036b761799b56afd28a845a6040805193845260208401929092529082015260600160405180910390a25060019998505050505050505050565b6108f8610b63565b6109026000610d0a565b565b6000806000806109168989878a610d5a565b90506000610926898b848a610d5a565b90508581111561096657600061093c8783611351565b905060008761094d83612710611368565b6109579190611387565b60025411159650909450869350505b5050955095509592505050565b61097b610b63565b610983610e0b565b6003543a11156109ca5760405162461bcd60e51b815260206004820152601260248201527108ec2e640e0e4d2c6ca40e8dede40d0d2ced60731b604482015260640161051b565b6040516310ac2ddf60e21b81526001600160a01b037f000000000000000000000000000000000000000000000000000000000000000016906342b0b77c90610a2190309088908890889088906000906004016113a9565b600060405180830381600087803b158015610a3b57600080fd5b505af1158015610a4f573d6000803e3d6000fd5b50505050610a5c60018055565b50505050565b610a6a610b63565b4780610aad5760405162461bcd60e51b81526020600482015260126024820152714e6f2045544820746f20776974686472617760701b604482015260640161051b565b600080546040516001600160a01b039091169183156108fc02918491818181858888f19350505050158015610ae6573d6000803e3d6000fd5b5050565b610af2610b63565b6001600160a01b038116610b575760405162461bcd60e51b815260206004820152602660248201527f4f776e61626c653a206e6577206f776e657220697320746865207a65726f206160448201526564647265737360d01b606482015260840161051b565b610b6081610d0a565b50565b6000546001600160a01b031633146109025760405162461bcd60e51b815260206004820181905260248201527f4f776e61626c653a2063616c6c6572206973206e6f7420746865206f776e6572604482015260640161051b565b81516040516370a0823160e01b815230600482015260009182916001600160a01b03909116906370a0823190602401602060405180830381865afa158015610c09573d6000803e3d6000fd5b505050506040513d601f19601f82011682018060405250810190610c2d919061122e565b90506000610c4985600001518660200151868860600151610e65565b905060008560a0015115610c5e575080610c79565b610c7686602001518760000151848960800151610e65565b90505b85516040516370a0823160e01b81523060048201526000916001600160a01b0316906370a0823190602401602060405180830381865afa158015610cc1573d6000803e3d6000fd5b505050506040513d601f19601f82011682018060405250810190610ce5919061122e565b9050838111610cf5576000610cff565b610cff8482611351565b979650505050505050565b600080546001600160a01b038381166001600160a01b0319831681178455604051919092169283917f8be0079c531659141344cd1fd0a4f28419497f9722a3daafe3b4186f6b6457e09190a35050565b60405163f7729d4360e01b81526001600160a01b0380861660048301528416602482015262ffffff821660448201526064810183905260006084820181905290733d4e44eb1374240ce5f1b871ab261cd16335b76a9063f7729d439060a4016020604051808303816000875af1925050508015610df4575060408051601f3d908101601f19168201909252610df19181019061122e565b60015b610e0057506000610e03565b90505b949350505050565b60026001541415610e5e5760405162461bcd60e51b815260206004820152601f60248201527f5265656e7472616e637947756172643a207265656e7472616e742063616c6c00604482015260640161051b565b6002600155565b60405163095ea7b360e01b8152732626664c2603336e57b271c5c0b26f421741e4816004820152602481018390526000906001600160a01b0386169063095ea7b3906044016020604051808303816000875af1158015610ec9573d6000803e3d6000fd5b505050506040513d601f19601f82011682018060405250810190610eed9190611255565b506000604051806101000160405280876001600160a01b03168152602001866001600160a01b031681526020018462ffffff168152602001306001600160a01b031681526020014261012c610f429190611339565b8152602080820187905260006040808401829052606093840191909152805163414bf38960e01b815284516001600160a01b03908116600483015292850151831660248201529084015162ffffff16604482015291830151811660648301526080830151608483015260a083015160a483015260c083015160c483015260e08301511660e4820152909150732626664c2603336e57b271c5c0b26f421741e4819063414bf38990610104016020604051808303816000875af115801561100c573d6000803e3d6000fd5b505050506040513d601f19601f82011682018060405250810190611030919061122e565b9695505050505050565b80356001600160a01b038116811461105157600080fd5b919050565b60006020828403121561106857600080fd5b6110718261103a565b9392505050565b60008060006060848603121561108d57600080fd5b505081359360208301359350604090920135919050565b60008083601f8401126110b657600080fd5b50813567ffffffffffffffff8111156110ce57600080fd5b6020830191508360208285010111156110e657600080fd5b9250929050565b60008060008060008060a0878903121561110657600080fd5b61110f8761103a565b9550602087013594506040870135935061112b6060880161103a565b9250608087013567ffffffffffffffff81111561114757600080fd5b61115389828a016110a4565b979a9699509497509295939492505050565b803562ffffff8116811461105157600080fd5b600080600080600060a0868803121561119057600080fd5b6111998661103a565b94506111a76020870161103a565b93506111b560408701611165565b92506111c360608701611165565b949793965091946080013592915050565b600080600080606085870312156111ea57600080fd5b6111f38561103a565b935060208501359250604085013567ffffffffffffffff81111561121657600080fd5b611222878288016110a4565b95989497509550505050565b60006020828403121561124057600080fd5b5051919050565b8015158114610b6057600080fd5b60006020828403121561126757600080fd5b815161107181611247565b803561105181611247565b600060c0828403121561128f57600080fd5b60405160c0810181811067ffffffffffffffff821117156112c057634e487b7160e01b600052604160045260246000fd5b6040526112cc8361103a565b81526112da6020840161103a565b6020820152604083013560408201526112f560608401611165565b606082015261130660808401611165565b608082015261131760a08401611272565b60a08201529392505050565b634e487b7160e01b600052601160045260246000fd5b6000821982111561134c5761134c611323565b500190565b60008282101561136357611363611323565b500390565b600081600019048311821515161561138257611382611323565b500290565b6000826113a457634e487b7160e01b600052601260045260246000fd5b500490565b6001600160a01b038781168252861660208201526040810185905260a06060820181905281018390526000838560c0840137600060c0858401015260c0601f19601f860116830101905061ffff8316608083015297965050505050505056fea26469706673582212202e98b7951d86cc8afbb606fc9007732e85401bd20c9c13793194c392c9253afd64736f6c634300080a0033",
  "linkReferences": {},
  "deployedLinkReferences": {}
}