{
  "_format": "hh-sol-artifact-1",
  "contractName": "Arbitrage",
  "sourceName": "contracts/Arbitrage.sol",
  "abi": [
    {
      "inputs": [
        {
          "internalType": "address",
          "name": "_uniswap",
          "type": "address"
        },
        {
          "internalType": "address",
          "name": "_sushiswap",
          "type": "address"
        },
        {
          "internalType": "uint256",
          "name": "_slippageTolerance",
          "type": "uint256"
        },
        {
          "internalType": "address",
          "name": "_wbtcContract",
          "type": "address"
        },
        {
          "internalType": "address",
          "name": "_usdtContract",
          "type": "address"
        }
      ],
      "stateMutability": "nonpayable",
      "type": "constructor"
    },
    {
      "anonymous": false,
      "inputs": [
        {
          "indexed": true,
          "internalType": "address",
          "name": "previousOwner",
          "type": "address"
        },
        {
          "indexed": true,
          "internalType": "address",
          "name": "newOwner",
          "type": "address"
        }
      ],
      "name": "OwnershipTransferred",
      "type": "event"
    },
    {
      "inputs": [
        {
          "internalType": "uint256",
          "name": "usdtAmount",
          "type": "uint256"
        },
        {
          "internalType": "uint256",
          "name": "wbtcAmount",
          "type": "uint256"
        },
        {
          "internalType": "address[]",
          "name": "path1",
          "type": "address[]"
        },
        {
          "internalType": "address[]",
          "name": "path2",
          "type": "address[]"
        }
      ],
      "name": "approveAndPerformArbitrage",
      "outputs": [],
      "stateMutability": "nonpayable",
      "type": "function"
    },
    {
      "inputs": [
        {
          "internalType": "address",
          "name": "token",
          "type": "address"
        }
      ],
      "name": "emergencyWithdrawToken",
      "outputs": [],
      "stateMutability": "nonpayable",
      "type": "function"
    },
    {
      "inputs": [],
      "name": "owner",
      "outputs": [
        {
          "internalType": "address",
          "name": "",
          "type": "address"
        }
      ],
      "stateMutability": "view",
      "type": "function"
    },
    {
      "inputs": [
        {
          "internalType": "uint256",
          "name": "usdtAmount",
          "type": "uint256"
        },
        {
          "internalType": "uint256",
          "name": "wbtcAmount",
          "type": "uint256"
        },
        {
          "internalType": "address[]",
          "name": "path1",
          "type": "address[]"
        },
        {
          "internalType": "address[]",
          "name": "path2",
          "type": "address[]"
        }
      ],
      "name": "performArbitrage",
      "outputs": [],
      "stateMutability": "nonpayable",
      "type": "function"
    },
    {
      "inputs": [],
      "name": "renounceOwnership",
      "outputs": [],
      "stateMutability": "nonpayable",
      "type": "function"
    },
    {
      "inputs": [
        {
          "internalType": "uint256",
          "name": "_slippageTolerance",
          "type": "uint256"
        }
      ],
      "name": "setSlippageTolerance",
      "outputs": [],
      "stateMutability": "nonpayable",
      "type": "function"
    },
    {
      "inputs": [],
      "name": "slippageTolerance",
      "outputs": [
        {
          "internalType": "uint256",
          "name": "",
          "type": "uint256"
        }
      ],
      "stateMutability": "view",
      "type": "function"
    },
    {
      "inputs": [],
      "name": "sushiswap",
      "outputs": [
        {
          "internalType": "contract IUniswapV2Router02",
          "name": "",
          "type": "address"
        }
      ],
      "stateMutability": "view",
      "type": "function"
    },
    {
      "inputs": [
        {
          "internalType": "address",
          "name": "newOwner",
          "type": "address"
        }
      ],
      "name": "transferOwnership",
      "outputs": [],
      "stateMutability": "nonpayable",
      "type": "function"
    },
    {
      "inputs": [],
      "name": "uniswap",
      "outputs": [
        {
          "internalType": "contract IUniswapV2Router02",
          "name": "",
          "type": "address"
        }
      ],
      "stateMutability": "view",
      "type": "function"
    },
    {
      "inputs": [],
      "name": "usdtContract",
      "outputs": [
        {
          "internalType": "contract IERC20",
          "name": "",
          "type": "address"
        }
      ],
      "stateMutability": "view",
      "type": "function"
    },
    {
      "inputs": [],
      "name": "wbtcContract",
      "outputs": [
        {
          "internalType": "contract IERC20",
          "name": "",
          "type": "address"
        }
      ],
      "stateMutability": "view",
      "type": "function"
    },
    {
      "inputs": [
        {
          "internalType": "address",
          "name": "token",
          "type": "address"
        }
      ],
      "name": "withdrawToken",
      "outputs": [],
      "stateMutability": "nonpayable",
      "type": "function"
    }
  ],
  "bytecode": "0x60806040523480156200001157600080fd5b5060405162001af738038062001af783398101604081905262000034916200056a565b6200003f3362000128565b600180546001600160a01b03199081166001600160a01b03888116919091179092556002805482168784161790556003859055600480548216858416179055600580549091169183169182179055620000a8908660001962000178602090811b62000b5a17901c565b600554620000cf906001600160a01b03168560001962000178602090811b62000b5a17901c565b600454620000f6906001600160a01b03168660001962000178602090811b62000b5a17901c565b6004546200011d906001600160a01b03168560001962000178602090811b62000b5a17901c565b50505050506200069c565b600080546001600160a01b038381166001600160a01b0319831681178455604051919092169283917f8be0079c531659141344cd1fd0a4f28419497f9722a3daafe3b4186f6b6457e09190a35050565b801580620001f65750604051636eb1769f60e11b81523060048201526001600160a01b03838116602483015284169063dd62ed3e90604401602060405180830381865afa158015620001ce573d6000803e3d6000fd5b505050506040513d601f19601f82011682018060405250810190620001f49190620005d1565b155b6200026e5760405162461bcd60e51b815260206004820152603660248201527f5361666545524332303a20617070726f76652066726f6d206e6f6e2d7a65726f60448201527f20746f206e6f6e2d7a65726f20616c6c6f77616e63650000000000000000000060648201526084015b60405180910390fd5b604080516001600160a01b038416602482015260448082018490528251808303909101815260649091019091526020810180516001600160e01b0390811663095ea7b360e01b17909152620002c6918591620002cb16565b505050565b600062000327826040518060400160405280602081526020017f5361666545524332303a206c6f772d6c6576656c2063616c6c206661696c6564815250856001600160a01b0316620003ac60201b62000ca7179092919060201c565b90508051600014806200034b5750808060200190518101906200034b9190620005eb565b620002c65760405162461bcd60e51b815260206004820152602a60248201527f5361666545524332303a204552433230206f7065726174696f6e20646964206e6044820152691bdd081cdd58d8d9595960b21b606482015260840162000265565b6060620003bd8484600085620003c5565b949350505050565b606082471015620004285760405162461bcd60e51b815260206004820152602660248201527f416464726573733a20696e73756666696369656e742062616c616e636520666f6044820152651c8818d85b1b60d21b606482015260840162000265565b600080866001600160a01b0316858760405162000446919062000649565b60006040518083038185875af1925050503d806000811462000485576040519150601f19603f3d011682016040523d82523d6000602084013e6200048a565b606091505b5090925090506200049e87838387620004a9565b979650505050505050565b606083156200051a57825162000512576001600160a01b0385163b620005125760405162461bcd60e51b815260206004820152601d60248201527f416464726573733a2063616c6c20746f206e6f6e2d636f6e7472616374000000604482015260640162000265565b5081620003bd565b620003bd8383815115620005315781518083602001fd5b8060405162461bcd60e51b815260040162000265919062000667565b80516001600160a01b03811681146200056557600080fd5b919050565b600080600080600060a086880312156200058357600080fd5b6200058e866200054d565b94506200059e602087016200054d565b935060408601519250620005b5606087016200054d565b9150620005c5608087016200054d565b90509295509295909350565b600060208284031215620005e457600080fd5b5051919050565b600060208284031215620005fe57600080fd5b815180151581146200060f57600080fd5b9392505050565b60005b838110156200063357818101518382015260200162000619565b8381111562000643576000848401525b50505050565b600082516200065d81846020870162000616565b9190910192915050565b60208152600082518060208401526200068881604085016020870162000616565b601f01601f19169190910160400192915050565b61144b80620006ac6000396000f3fe608060405234801561001057600080fd5b50600436106100cf5760003560e01c8063807a012d1161008c5780639070f19a116100665780639070f19a146101915780639be28785146101a4578063d03153aa146101b7578063f2fde38b146101ce57600080fd5b8063807a012d1461015a578063894760691461016d5780638da5cb5b1461018057600080fd5b8063117da1ee146100d4578063168bc159146100e95780631af03203146100fc5780632681f7e41461010f578063611509231461013f578063715018a614610152575b600080fd5b6100e76100e2366004611021565b6101e1565b005b6100e76100f7366004611086565b6101ee565b6100e761010a366004611125565b610946565b600154610122906001600160a01b031681565b6040516001600160a01b0390911681526020015b60405180910390f35b600554610122906001600160a01b031681565b6100e76109e5565b600454610122906001600160a01b031681565b6100e761017b366004611125565b6109f9565b6000546001600160a01b0316610122565b6100e761019f366004611086565b610acb565b600254610122906001600160a01b031681565b6101c060035481565b604051908152602001610136565b6100e76101dc366004611125565b610ae1565b6101e9610cbe565b600355565b6101f6610cbe565b60055461020e906001600160a01b0316333089610d18565b600454610226906001600160a01b0316333088610d18565b600061023342600161115d565b60015460405163d06ca61f60e01b81529192506000916001600160a01b039091169063d06ca61f9061026d908b908a908a906004016111bc565b600060405180830381865afa15801561028a573d6000803e3d6000fd5b505050506040513d6000823e601f3d908101601f191682016040526102b291908101906111f5565b9050600081600183516102c591906112b3565b815181106102d5576102d56112ca565b602090810291909101015160015460405163d06ca61f60e01b81529192506000916001600160a01b039091169063d06ca61f9061031a908c908c908c906004016111bc565b600060405180830381865afa158015610337573d6000803e3d6000fd5b505050506040513d6000823e601f3d908101601f1916820160405261035f91908101906111f5565b90506000816001835161037291906112b3565b81518110610382576103826112ca565b60209081029190910101516002546040516307c0329d60e21b81529192506001600160a01b031690631f00ca74906103c29086908b908b906004016111bc565b600060405180830381865afa1580156103df573d6000803e3d6000fd5b505050506040513d6000823e601f3d908101601f1916820160405261040791908101906111f5565b935060008460008151811061041e5761041e6112ca565b60209081029190910101516002546040516307c0329d60e21b81529192506001600160a01b031690631f00ca749061045e9085908c908c906004016111bc565b600060405180830381865afa15801561047b573d6000803e3d6000fd5b505050506040513d6000823e601f3d908101601f191682016040526104a391908101906111f5565b92506000836000815181106104ba576104ba6112ca565b602002602001015190506127106003546127106104d7919061115d565b6104e1908f6112e0565b6104eb91906112ff565b82111561053a5760405162461bcd60e51b8152602060048201526018602482015277417262697472616765206e6f742070726f66697461626c6560401b60448201526064015b60405180910390fd5b61271060035461271061054d919061115d565b610557908e6112e0565b61056191906112ff565b8111156105ab5760405162461bcd60e51b8152602060048201526018602482015277417262697472616765206e6f742070726f66697461626c6560401b6044820152606401610531565b600160009054906101000a90046001600160a01b03166001600160a01b03166338ed17398e878e8e308d6040518763ffffffff1660e01b81526004016105f696959493929190611321565b6000604051808303816000875af1158015610615573d6000803e3d6000fd5b505050506040513d6000823e601f3d908101601f1916820160405261063d91908101906111f5565b50600160009054906101000a90046001600160a01b03166001600160a01b03166338ed17398d858e8e308d6040518763ffffffff1660e01b815260040161068996959493929190611321565b6000604051808303816000875af11580156106a8573d6000803e3d6000fd5b505050506040513d6000823e601f3d908101601f191682016040526106d091908101906111f5565b5060008b8b6106e06001826112b3565b8181106106ef576106ef6112ca565b90506020020160208101906107049190611125565b6040516370a0823160e01b81523060048201526001600160a01b0391909116906370a0823190602401602060405180830381865afa15801561074a573d6000803e3d6000fd5b505050506040513d601f19601f8201168201806040525081019061076e919061135f565b905060008a8a61077f6001826112b3565b81811061078e5761078e6112ca565b90506020020160208101906107a39190611125565b6040516370a0823160e01b81523060048201526001600160a01b0391909116906370a0823190602401602060405180830381865afa1580156107e9573d6000803e3d6000fd5b505050506040513d601f19601f8201168201806040525081019061080d919061135f565b9050600260009054906101000a90046001600160a01b03166001600160a01b03166338ed173983868e8e308f6040518763ffffffff1660e01b815260040161085a96959493929190611321565b6000604051808303816000875af1158015610879573d6000803e3d6000fd5b505050506040513d6000823e601f3d908101601f191682016040526108a191908101906111f5565b50600260009054906101000a90046001600160a01b03166001600160a01b03166338ed173982858e8e308f6040518763ffffffff1660e01b81526004016108ed96959493929190611321565b6000604051808303816000875af115801561090c573d6000803e3d6000fd5b505050506040513d6000823e601f3d908101601f1916820160405261093491908101906111f5565b50505050505050505050505050505050565b61094e610cbe565b6040516370a0823160e01b81523060048201526000906001600160a01b038316906370a0823190602401602060405180830381865afa158015610995573d6000803e3d6000fd5b505050506040513d601f19601f820116820180604052508101906109b9919061135f565b90506109e16109d06000546001600160a01b031690565b6001600160a01b0384169083610d56565b5050565b6109ed610cbe565b6109f76000610d86565b565b610a01610cbe565b6040516370a0823160e01b81523060048201526000906001600160a01b038316906370a0823190602401602060405180830381865afa158015610a48573d6000803e3d6000fd5b505050506040513d601f19601f82011682018060405250810190610a6c919061135f565b905060008111610ab65760405162461bcd60e51b81526020600482015260156024820152744e6f20746f6b656e7320746f20776974686472617760581b6044820152606401610531565b6109e16109d06000546001600160a01b031690565b610ad98686868686866101ee565b505050505050565b610ae9610cbe565b6001600160a01b038116610b4e5760405162461bcd60e51b815260206004820152602660248201527f4f776e61626c653a206e6577206f776e657220697320746865207a65726f206160448201526564647265737360d01b6064820152608401610531565b610b5781610d86565b50565b801580610bd45750604051636eb1769f60e11b81523060048201526001600160a01b03838116602483015284169063dd62ed3e90604401602060405180830381865afa158015610bae573d6000803e3d6000fd5b505050506040513d601f19601f82011682018060405250810190610bd2919061135f565b155b610c3f5760405162461bcd60e51b815260206004820152603660248201527f5361666545524332303a20617070726f76652066726f6d206e6f6e2d7a65726f60448201527520746f206e6f6e2d7a65726f20616c6c6f77616e636560501b6064820152608401610531565b6040516001600160a01b038316602482015260448101829052610ca290849063095ea7b360e01b906064015b60408051601f198184030181529190526020810180516001600160e01b03166001600160e01b031990931692909217909152610dd6565b505050565b6060610cb68484600085610eab565b949350505050565b6000546001600160a01b031633146109f75760405162461bcd60e51b815260206004820181905260248201527f4f776e61626c653a2063616c6c6572206973206e6f7420746865206f776e65726044820152606401610531565b6040516001600160a01b0380851660248301528316604482015260648101829052610d509085906323b872dd60e01b90608401610c6b565b50505050565b6040516001600160a01b038316602482015260448101829052610ca290849063a9059cbb60e01b90606401610c6b565b600080546001600160a01b038381166001600160a01b0319831681178455604051919092169283917f8be0079c531659141344cd1fd0a4f28419497f9722a3daafe3b4186f6b6457e09190a35050565b6000610e2b826040518060400160405280602081526020017f5361666545524332303a206c6f772d6c6576656c2063616c6c206661696c6564815250856001600160a01b0316610ca79092919063ffffffff16565b9050805160001480610e4c575080806020019051810190610e4c9190611378565b610ca25760405162461bcd60e51b815260206004820152602a60248201527f5361666545524332303a204552433230206f7065726174696f6e20646964206e6044820152691bdd081cdd58d8d9595960b21b6064820152608401610531565b606082471015610f0c5760405162461bcd60e51b815260206004820152602660248201527f416464726573733a20696e73756666696369656e742062616c616e636520666f6044820152651c8818d85b1b60d21b6064820152608401610531565b600080866001600160a01b03168587604051610f2891906113c6565b60006040518083038185875af1925050503d8060008114610f65576040519150601f19603f3d011682016040523d82523d6000602084013e610f6a565b606091505b5091509150610f7b87838387610f86565b979650505050505050565b60608315610ff2578251610feb576001600160a01b0385163b610feb5760405162461bcd60e51b815260206004820152601d60248201527f416464726573733a2063616c6c20746f206e6f6e2d636f6e74726163740000006044820152606401610531565b5081610cb6565b610cb683838151156110075781518083602001fd5b8060405162461bcd60e51b815260040161053191906113e2565b60006020828403121561103357600080fd5b5035919050565b60008083601f84011261104c57600080fd5b50813567ffffffffffffffff81111561106457600080fd5b6020830191508360208260051b850101111561107f57600080fd5b9250929050565b6000806000806000806080878903121561109f57600080fd5b8635955060208701359450604087013567ffffffffffffffff808211156110c557600080fd5b6110d18a838b0161103a565b909650945060608901359150808211156110ea57600080fd5b506110f789828a0161103a565b979a9699509497509295939492505050565b80356001600160a01b038116811461112057600080fd5b919050565b60006020828403121561113757600080fd5b61114082611109565b9392505050565b634e487b7160e01b600052601160045260246000fd5b6000821982111561117057611170611147565b500190565b8183526000602080850194508260005b858110156111b1576001600160a01b0361119e83611109565b1687529582019590820190600101611185565b509495945050505050565b8381526040602082015260006111d6604083018486611175565b95945050505050565b634e487b7160e01b600052604160045260246000fd5b6000602080838503121561120857600080fd5b825167ffffffffffffffff8082111561122057600080fd5b818501915085601f83011261123457600080fd5b815181811115611246576112466111df565b8060051b604051601f19603f8301168101818110858211171561126b5761126b6111df565b60405291825284820192508381018501918883111561128957600080fd5b938501935b828510156112a75784518452938501939285019261128e565b98975050505050505050565b6000828210156112c5576112c5611147565b500390565b634e487b7160e01b600052603260045260246000fd5b60008160001904831182151516156112fa576112fa611147565b500290565b60008261131c57634e487b7160e01b600052601260045260246000fd5b500490565b86815285602082015260a06040820152600061134160a083018688611175565b6001600160a01b039490941660608301525060800152949350505050565b60006020828403121561137157600080fd5b5051919050565b60006020828403121561138a57600080fd5b8151801515811461114057600080fd5b60005b838110156113b557818101518382015260200161139d565b83811115610d505750506000910152565b600082516113d881846020870161139a565b9190910192915050565b602081526000825180602084015261140181604085016020870161139a565b601f01601f1916919091016040019291505056fea2646970667358221220ebc6966a0a8816dea8cca9a4d2b649449b163fca4971919059810a68eaa3921d64736f6c634300080a0033",
  "linkReferences": {},
  "deployedLinkReferences": {}
}