{
  "_format": "hh-sol-artifact-1",
  "contractName": "SimpleFlashLoan",
  "sourceName": "contracts/Flash-Loan-Arbitrage.sol",
  "abi": [
    {
      "inputs": [
        {
          "internalType": "address",
          "name": "_addressProvider",
          "type": "address"
        },
        {
          "internalType": "address",
          "name": "_uniswapRouterAddress",
          "type": "address"
        }
      ],
      "stateMutability": "nonpayable",
      "type": "constructor"
    },
    {
      "inputs": [],
      "name": "ADDRESSES_PROVIDER",
      "outputs": [
        {
          "internalType": "contract IPoolAddressesProvider",
          "name": "",
          "type": "address"
        }
      ],
      "stateMutability": "view",
      "type": "function"
    },
    {
      "inputs": [],
      "name": "POOL",
      "outputs": [
        {
          "internalType": "contract IPool",
          "name": "",
          "type": "address"
        }
      ],
      "stateMutability": "view",
      "type": "function"
    },
    {
      "inputs": [
        {
          "internalType": "address",
          "name": "asset",
          "type": "address"
        },
        {
          "internalType": "uint256",
          "name": "amount",
          "type": "uint256"
        },
        {
          "internalType": "uint256",
          "name": "premium",
          "type": "uint256"
        },
        {
          "internalType": "address",
          "name": "initiator",
          "type": "address"
        },
        {
          "internalType": "bytes",
          "name": "params",
          "type": "bytes"
        }
      ],
      "name": "executeOperation",
      "outputs": [
        {
          "internalType": "bool",
          "name": "",
          "type": "bool"
        }
      ],
      "stateMutability": "nonpayable",
      "type": "function"
    },
    {
      "inputs": [
        {
          "internalType": "address",
          "name": "_token",
          "type": "address"
        },
        {
          "internalType": "uint256",
          "name": "_amount",
          "type": "uint256"
        }
      ],
      "name": "fn_RequestFlashLoan",
      "outputs": [],
      "stateMutability": "nonpayable",
      "type": "function"
    },
    {
      "inputs": [],
      "name": "uniswapRouter",
      "outputs": [
        {
          "internalType": "contract IUniswapV2Router",
          "name": "",
          "type": "address"
        }
      ],
      "stateMutability": "view",
      "type": "function"
    },
    {
      "inputs": [],
      "name": "uniswapRouterAddress",
      "outputs": [
        {
          "internalType": "address",
          "name": "",
          "type": "address"
        }
      ],
      "stateMutability": "view",
      "type": "function"
    },
    {
      "stateMutability": "payable",
      "type": "receive"
    }
  ],
  "bytecode": "0x60c060405234801561001057600080fd5b5060405161095038038061095083398101604081905261002f91610102565b81806001600160a01b03166080816001600160a01b031681525050806001600160a01b031663026b1d5f6040518163ffffffff1660e01b8152600401602060405180830381865afa158015610088573d6000803e3d6000fd5b505050506040513d601f19601f820116820180604052508101906100ac9190610135565b6001600160a01b0390811660a05260028054939091166001600160a01b031993841681179091556001805490931617909155506101579050565b80516001600160a01b03811681146100fd57600080fd5b919050565b6000806040838503121561011557600080fd5b61011e836100e6565b915061012c602084016100e6565b90509250929050565b60006020828403121561014757600080fd5b610150826100e6565b9392505050565b60805160a0516107c76101896000396000818161013801528181610342015261040401526000607701526107c76000f3fe6080604052600436106100595760003560e01c80630542975c146100655780631b11d0ff146100b657806320ca3c7f146100e6578063735de9f7146101065780637535d2461461012657806387c7f0ac1461015a57600080fd5b3661006057005b600080fd5b34801561007157600080fd5b506100997f000000000000000000000000000000000000000000000000000000000000000081565b6040516001600160a01b0390911681526020015b60405180910390f35b3480156100c257600080fd5b506100d66100d1366004610498565b61017c565b60405190151581526020016100ad565b3480156100f257600080fd5b50600254610099906001600160a01b031681565b34801561011257600080fd5b50600154610099906001600160a01b031681565b34801561013257600080fd5b506100997f000000000000000000000000000000000000000000000000000000000000000081565b34801561016657600080fd5b5061017a61017536600461053e565b6103d6565b005b6040805160028082526060820183526000927352d800ca262522580cebad275395ca6e7598c014928492909160208301908036833701905050905088816000815181106101cb576101cb61057e565b60200260200101906001600160a01b031690816001600160a01b03168152505081816001815181106101ff576101ff61057e565b6001600160a01b0390921660209283029190910190910152600061022442600f610594565b60025460405163095ea7b360e01b81526001600160a01b039182166004820152602481018c90529192508b169063095ea7b3906044016020604051808303816000875af1158015610279573d6000803e3d6000fd5b505050506040513d601f19601f8201168201806040525081019061029d91906105ba565b506001546040516338ed173960e01b81526001600160a01b03909116906338ed1739906102d7908c906000908790309088906004016105e3565b6000604051808303816000875af11580156102f6573d6000803e3d6000fd5b505050506040513d6000823e601f3d908101601f1916820160405261031e9190810190610654565b50600061032b898b610594565b60405163095ea7b360e01b81526001600160a01b037f00000000000000000000000000000000000000000000000000000000000000008116600483015260248201839052919250908c169063095ea7b3906044016020604051808303816000875af115801561039e573d6000803e3d6000fd5b505050506040513d601f19601f820116820180604052508101906103c291906105ba565b5060019450505050505b9695505050505050565b60408051602081018252600080825291516310ac2ddf60e21b81523092859285929091906001600160a01b037f000000000000000000000000000000000000000000000000000000000000000016906342b0b77c906104419088908890889088908890600401610712565b600060405180830381600087803b15801561045b57600080fd5b505af115801561046f573d6000803e3d6000fd5b5050505050505050505050565b80356001600160a01b038116811461049357600080fd5b919050565b60008060008060008060a087890312156104b157600080fd5b6104ba8761047c565b955060208701359450604087013593506104d66060880161047c565b9250608087013567ffffffffffffffff808211156104f357600080fd5b818901915089601f83011261050757600080fd5b81358181111561051657600080fd5b8a602082850101111561052857600080fd5b6020830194508093505050509295509295509295565b6000806040838503121561055157600080fd5b61055a8361047c565b946020939093013593505050565b634e487b7160e01b600052604160045260246000fd5b634e487b7160e01b600052603260045260246000fd5b600082198211156105b557634e487b7160e01b600052601160045260246000fd5b500190565b6000602082840312156105cc57600080fd5b815180151581146105dc57600080fd5b9392505050565b600060a082018783526020878185015260a0604085015281875180845260c086019150828901935060005b818110156106335784516001600160a01b03168352938301939183019160010161060e565b50506001600160a01b03969096166060850152505050608001529392505050565b6000602080838503121561066757600080fd5b825167ffffffffffffffff8082111561067f57600080fd5b818501915085601f83011261069357600080fd5b8151818111156106a5576106a5610568565b8060051b604051601f19603f830116810181811085821117156106ca576106ca610568565b6040529182528482019250838101850191888311156106e857600080fd5b938501935b82851015610706578451845293850193928501926106ed565b98975050505050505050565b600060018060a01b03808816835260208188168185015286604085015260a06060850152855191508160a085015260005b8281101561075f5786810182015185820160c001528101610743565b8281111561077157600060c084870101525b5050601f01601f1916820160c00190506103cc608083018461ffff16905256fea2646970667358221220e84b5cfd657bbc56fbdca0143911016909ea26d69855f824befcd129f4b22b7964736f6c634300080a0033",
  "linkReferences": {},
  "deployedLinkReferences": {}
}