{
  "_format": "hh-sol-artifact-1",
  "contractName": "SimpleFlashLoan",
  "sourceName": "contracts/FlashLoan.sol",
  "abi": [
    {
      "inputs": [
        {
          "internalType": "address",
          "name": "_addressProvider",
          "type": "address"
        }
      ],
      "stateMutability": "nonpayable",
      "type": "constructor"
    },
    {
      "inputs": [],
      "name": "ADDRESSES_PROVIDER",
      "outputs": [
        {
          "internalType": "contract IPoolAddressesProvider",
          "name": "",
          "type": "address"
        }
      ],
      "stateMutability": "view",
      "type": "function"
    },
    {
      "inputs": [],
      "name": "POOL",
      "outputs": [
        {
          "internalType": "contract IPool",
          "name": "",
          "type": "address"
        }
      ],
      "stateMutability": "view",
      "type": "function"
    },
    {
      "inputs": [
        {
          "internalType": "address",
          "name": "asset",
          "type": "address"
        },
        {
          "internalType": "uint256",
          "name": "amount",
          "type": "uint256"
        },
        {
          "internalType": "uint256",
          "name": "premium",
          "type": "uint256"
        },
        {
          "internalType": "address",
          "name": "initiator",
          "type": "address"
        },
        {
          "internalType": "bytes",
          "name": "params",
          "type": "bytes"
        }
      ],
      "name": "executeOperation",
      "outputs": [
        {
          "internalType": "bool",
          "name": "",
          "type": "bool"
        }
      ],
      "stateMutability": "nonpayable",
      "type": "function"
    },
    {
      "inputs": [
        {
          "internalType": "address",
          "name": "_token",
          "type": "address"
        },
        {
          "internalType": "uint256",
          "name": "_amount",
          "type": "uint256"
        }
      ],
      "name": "fn_RequestFlashLoan",
      "outputs": [],
      "stateMutability": "nonpayable",
      "type": "function"
    },
    {
      "stateMutability": "payable",
      "type": "receive"
    }
  ],
  "bytecode": "0x60c060405234801561001057600080fd5b5060405161059238038061059283398101604081905261002f916100c0565b80806001600160a01b03166080816001600160a01b031681525050806001600160a01b031663026b1d5f6040518163ffffffff1660e01b8152600401602060405180830381865afa158015610088573d6000803e3d6000fd5b505050506040513d601f19601f820116820180604052508101906100ac91906100c0565b6001600160a01b031660a052506100f09050565b6000602082840312156100d257600080fd5b81516001600160a01b03811681146100e957600080fd5b9392505050565b60805160a0516104716101216000396000818160e20152818161014a015261020901526000606101526104716000f3fe6080604052600436106100435760003560e01c80630542975c1461004f5780631b11d0ff146100a05780637535d246146100d057806387c7f0ac1461010457600080fd5b3661004a57005b600080fd5b34801561005b57600080fd5b506100837f000000000000000000000000000000000000000000000000000000000000000081565b6040516001600160a01b0390911681526020015b60405180910390f35b3480156100ac57600080fd5b506100c06100bb36600461029d565b610126565b6040519015158152602001610097565b3480156100dc57600080fd5b506100837f000000000000000000000000000000000000000000000000000000000000000081565b34801561011057600080fd5b5061012461011f366004610343565b6101db565b005b600080610133868861036d565b60405163095ea7b360e01b81526001600160a01b037f000000000000000000000000000000000000000000000000000000000000000081166004830152602482018390529192509089169063095ea7b3906044016020604051808303816000875af11580156101a6573d6000803e3d6000fd5b505050506040513d601f19601f820116820180604052508101906101ca9190610393565b5060019150505b9695505050505050565b60408051602081018252600080825291516310ac2ddf60e21b81523092859285929091906001600160a01b037f000000000000000000000000000000000000000000000000000000000000000016906342b0b77c9061024690889088908890889088906004016103bc565b600060405180830381600087803b15801561026057600080fd5b505af1158015610274573d6000803e3d6000fd5b5050505050505050505050565b80356001600160a01b038116811461029857600080fd5b919050565b60008060008060008060a087890312156102b657600080fd5b6102bf87610281565b955060208701359450604087013593506102db60608801610281565b9250608087013567ffffffffffffffff808211156102f857600080fd5b818901915089601f83011261030c57600080fd5b81358181111561031b57600080fd5b8a602082850101111561032d57600080fd5b6020830194508093505050509295509295509295565b6000806040838503121561035657600080fd5b61035f83610281565b946020939093013593505050565b6000821982111561038e57634e487b7160e01b600052601160045260246000fd5b500190565b6000602082840312156103a557600080fd5b815180151581146103b557600080fd5b9392505050565b600060018060a01b03808816835260208188168185015286604085015260a06060850152855191508160a085015260005b828110156104095786810182015185820160c0015281016103ed565b8281111561041b57600060c084870101525b5050601f01601f1916820160c00190506101d1608083018461ffff16905256fea2646970667358221220baef9b829c2dc012a7abf5d7fc16cd3e1dc329a821b8cfc42e18d31e750e997b64736f6c634300080a0033",
  "linkReferences": {},
  "deployedLinkReferences": {}
}